:020000040000FA
:10000000A0560020B5210000FB760000A1210000D1
:10001000A1210000A1210000A1210000A1210000D8
:100020000000000000000000000000008522000029
:10003000A121000000000000A1210000A12100007A
:10004000E1230000E1230000E1230000E1230000A0
:10005000E1230000E1230000E1230000E123000090
:10006000E1230000E1230000E1230000E123000080
:10007000E1230000E1230000E1230000E123000070
:1004800053B94AB9002908BF00281CBF4FF0FF31FB
:100490004FF0FF3000F00CB8ADF1080C6DE904CE60
:1004A00000F008F8DDF804E0DDE9022304B070474D
:1004B000704700BF2DE9F04786468C460846089EE7
:1004C000154674461946002B40F0C1808542B2FAA9
:1004D00082F245D94AB1C2F1200300FA02FC9540EC
:1004E00094402EFA03F343EA0C0C4FEA154EA8B2DF
:1004F000230CBCFBFEF80EFB18CC08FB00F943EA0A
:100500000C43994528D9EB1808F1FF3704D29945D7
:1005100002D9A8F102072B44A3EB0903A4B2B3FB51
:10052000FEFC0EFB1C330CFB00F044EA0344A0422B
:1005300014D92C190CF1FF3304D2A04202D9ACF12A
:1005400002032C44241A43EA07401EB1D44000237E
:1005500034607360BDE8F0874746DDE76346F1E746
:1005600092BB431B01214FEA154EAFB2200CB3FBE7
:10057000FEFC0EFB1C330CFB07F840EA03439845D6
:1005800061D9EB180CF1FF3004D2984502D9ACF1D7
:1005900002002B44A3EB0803A4B2B3FBFEFC0EFB4A
:1005A0001C330CFB07F744EA0344A7424DD92C192E
:1005B0000CF1FF3304D2A74202D9ACF102032C4460
:1005C000E41B43EA0040C0E7C2F120039540944099
:1005D00020FA03F12EFA03F34FEA154E9040AFB222
:1005E0000343B1FBFEFC0EFB1C10190C0CFB07F8BF
:1005F00041EA0041884522D969180CF1FF3004D244
:10060000884502D9ACF102002944A1EB08019BB254
:10061000B1FBFEFC0EFB1C110CFB07F743EA014388
:100620009F420ED9EB180CF1FF3104D29F4202D940
:10063000ACF102012B44DB1B41EA004193E7604629
:10064000E3E76146F7E76046A4E76346B8E783421D
:1006500006D916B9002108467CE7C6E900E0F9E7AB
:10066000B3FA83F78FB9834201D3724508D8BEEB42
:10067000020460EB030301209C461EB9002169E7D8
:100680003846FAE7C6E9004CF8E7C7F1200CBB4052
:100690000EFA07F522FA0CF42EFA0CF1BA401C43BC
:1006A00020FA0CF3B8404FEA144901431FFA84FEC4
:1006B000B3FBF9F809FB18300B0C08FB0EFA43EA00
:1006C00000439A4540D9E31808F1FF3004D29A4517
:1006D00002D9A8F102002344A3EB0A0389B2B3FBB9
:1006E000F9F809FB183308FB0EFE41EA03418E4579
:1006F0002CD9611808F1FF3304D28E4502D9A8F134
:100700000203214443EA0040A1EB0E01A0FB029842
:100710004145CE46434602D306D14D4504D2013869
:10072000B9EB020E68EB0403002EA7D0B5EB0E0266
:1007300061EB030101FA0CFC22FA07F3F9404CEAE1
:100740000303C6E9003199E74046C5E74346D9E7C8
:1007500070B4174E0C46B042154608D00136B04270
:100760000FD0023EB04210D070BC05F093BE0AA379
:10077000D3E90023C5E900230E4B0020236070BCA1
:10078000704707A3D3E90023F4E707A3D3E90023C5
:10079000F0E700BFAFF3008002C0FF7F0000000061
:1007A00003C0FF7F0000000001C0FF7F00000000C9
:1007B00002C0FF7F03004E8070B54921264886B0F5
:1007C00006F010FF06F0CEFA03A800F073FC234BEE
:1007D0001B68834204D04521214806F003FFFEE751
:1007E000059A49211F4806F0FDFE03991E480A7D1F
:1007F0004B7DC98A0091492106F0F4FE49211B482E
:1008000006F0F0FE02A99DF8100000F033F8029BFC
:10081000059C1C44039B1D8900F0A4FF661900F091
:1008200085FF06F0E4FF02F003F801F0F3FC00237B
:1008300083F30B8883F30A88625982F3088883F371
:100840001488BFF36F8FBFF36F8F7368984745218C
:10085000074806F0C7FEFEE74AB400007002002019
:1008600063B4000086B40000B5B40000D3B4000047
:10087000F8B40000024608B538B105480023452108
:1008800006F0B0FE6FF0150008BD0860FCE700BF81
:100890001BB5000021B1012906D06FF0150070478B
:1008A000044B53F830007047024B03EBC003586809
:1008B000704700BF889C000010B5044606F053FA4C
:1008C0002046BDE81040014907F096BC0B0000022D
:1008D0002DE9F04F9B46ADF5517D7F4B03903DA830
:1008E000DDE9DB890E461446DD9F1D68FFF7E4FF56
:1008F000B8F1000F07D0B9F1000F04DD4A464146B8
:100900003DA807F099FC4FF0000833897289D6F8AA
:100910000CA013449A44C2456AD8002340222D9368
:100920001DA92DAB3DA807F09BFC3DA807F059FC85
:1009300027B1402238461DA906F042FF0023224677
:10094000009331464FF6FF7307A806F015FA0746E5
:1009500000285DD1214603980C9E00F05BF9864289
:1009600056D84FF0FF36DFF874B1DFF874A10DF1FF
:10097000120304AA05A907A806F04CFA002847DBD1
:1009800040F0A380059907A806F090FA50B94FF6F9
:10099000FF71BDF81200534A32F8023B8B4237D048
:1009A0009842F9D1BDF81230122B3BD0242B6ED0D7
:1009B000012BDCD1BDF81030402B29D820460599F9
:1009C0000DAA06F01DFE064610BB9DF81080B8F17A
:1009D000400F0AD8DAF80030DFF80C910393039B3C
:1009E0003DA89E4235DB07F0FCFB4FF0FF36BEE72B
:1009F000DA9BAAEB0809994528BF99465A464B4607
:100A00004146204606F0FCFD28B13DA807F0E9FB71
:100A1000314B1D685BE04A4659463DA807F00CFC87
:100A2000C84478E7BDF81070402FF1D13B4620460E
:100A300005990DAA06F0E4FD0028E9D13A460DA972
:100A40001DA806F041FADBF800308342E0D101270F
:100A50008DE7FFF731FFD9F804303DA81A6859F83F
:100A6000081B07F0E9FB0023402206932DA906ABE3
:100A70003DA807F0F5FB42460DA92DA806F090FE13
:100A800018B93DA807F0ADFB71E70136A7E7731C65
:100A90003FF46DAFDAF80030B342A6DDBDF8105078
:100AA000402DB5D12B46204605990DAA06F0A8FD8C
:100AB0000028ADD1F6B22946BDF8103000960DAA37
:100AC0001DA800F05FF805468FE7002FA0D028464C
:100AD0000DF5517DBDE8F08F44000020700200202C
:100AE000909C00001CB40000949C0000F0B5214CC8
:100AF0000E4654F8331004EBC30489B063680091C8
:100B000005461868174601443023684601AA06F0D6
:100B100002FC18B1184B186809B0F0BDDDE90043BC
:100B20001C442146684605AB02AA06F01CFC0028BE
:100B3000F0D1039A032AEDD11049049806F030FE53
:100B40000028E7D12146684601AA06F0F8FB0028F4
:100B5000E0D1DDE9003299188C42DBD1202AD9D1CD
:100B60003A463146284600F08BFD0028D2D0044B8F
:100B7000D1E700BF949C00004400002041B5000074
:100B80007002002010B5064C4029246806D1402B85
:100B900004D19DF80830FFF7A9FF0446204610BD98
:100BA00044000020094A40000B7852F820108B4284
:100BB00009D0013052F82000834214BF4FF0FF30BB
:100BC0004FF4407070474FF4407070479C9C000099
:100BD0001FB5582303FB0100046A1023A1686A466D
:100BE0002046103906F00CFD034640B1227845211D
:100BF000064806F0F7FC0024204604B010BD102281
:100C00006846034906F0CCFDF6E700BF45B5000095
:100C10003AB4000013B508460C4606F073F96A466C
:100C20000146204606F083F830B10448452106F01D
:100C3000D9FC002002B010BD0098FBE771B50000A0
:100C400073B50D46002104462846CDE9001106F093
:100C50000DFA28B323681A4EB34203D1204601AAE5
:100C600006F078F9E36AB34204D16A4601212046CE
:100C700006F070F9DDE90032934288BF0193019BD1
:100C8000AB60019A2946204600F00EFC0D4B1A6815
:100C9000002A03DD57210C4806F0A4FC02B070BD09
:100CA00001462046FFF794FF064605F1080106F0CD
:100CB00034F9AB683046019306F0A1FCE1E700BFD0
:100CC0003DB8F396D4160020ACB500002DE9FF41E5
:100CD0002C2606FB0106376A0446384690460D4628
:100CE00006F0BFFC731EF21C13F8011F814224D1D1
:100CF0009A42F9D1BDB13946204606F02DFA98F84E
:100D00000730042B0AD12046216A06F025FA024654
:100D100048B94921224806F065FC04E0002002F0B1
:100D200039FB0428EFD01F4B186804B0BDE8F081F0
:100D30001D4B186825E01D4A2EE02C236B43E1185B
:100D40000869C206D6D4E258194B9A42F0D1CA6853
:100D50000B899B18ECD24A89D218E9D2BB689A4217
:100D6000E6D240F60C630340E2D1CDE902330193B1
:100D70004FF480733A460093314620460D4BFFF7FF
:100D8000A7FD0D4B1B688342CFD0002DD3D001218E
:100D9000384606F0DCF9094A45210948BBE700BF9F
:100DA000EDB500004000002044000020DBB500004D
:100DB0003DB8F396981D002070020020E3B50000B6
:100DC0002CB600002DE9F04B0E46904699460024C3
:100DD000099FDFF844B0BC4201D300200EE03D1B68
:100DE000B5F5806F28BF4FF4806530462B460A4A20
:100DF00004EB090106F004FC10B10120BDE8F08B02
:100E000008992B465A464046611806F00EFC002809
:100E1000F3D12C44DFE700BF74020020F0B50E468A
:100E200000219B4B0446436203F50063036589B0D0
:100E30000846FFF72FFD04F120010546C0B201F07E
:100E40001DF80346E8B90121FFF724FD04F14C0128
:100E50000546C0B201F012F80346E0B9204606F09C
:100E6000DAF80546C8B900222046114606F0BDF85A
:100E7000054668B300225721864806F0B3FB0123DC
:100E80009FE00022CDE90023452100232A46824825
:100E900006F0A8FBFEE70122F4E74FF48072572129
:100EA0007E4806F09FFB01239D4284F85830DAD13A
:100EB00094F85830042B8DF8173000F28580012B00
:100EC00000F2898000F09C80FF2384F8583097E07E
:100ED000204600F0F1F90028D1D004A806F0BDF8B2
:100EE0000146204606F06CF918B12A4657216C4895
:100EF000C3E704A806F0BAF880F0010104AA20466E
:100F0000C9B206F072F802460028B3D104A806F070
:100F1000ADF8054660BB204604A9FFF791FE9DF899
:100F2000173084F85830033B012B06D8284600F0D0
:100F3000E7F810B1FF2384F858309DF81730023BD2
:100F4000022B0BD8002000F0C5F838B1FF2384F83D
:100F500058304521534806F045FBFEE794F85830D9
:100F6000FF2BF6D000222046114606F03EF886E719
:100F70009DF81770012F18D1104602F00BFA831E4E
:100F8000022B05460ED83946204604AAFFF79EFEDE
:100F9000454B1B68984205D0444B1D68A84214BFBE
:100FA0000525012584F8585082E70121204604AA2E
:100FB000FFF78CFE3C4B1B68984214BF05239DF83D
:100FC000173084F8583073E7052B7FF47DAF00208D
:100FD00000F096F811E0204604A9FFF731FE94F8DE
:100FE0005830DA1E012A14D8002000F089F80028B1
:100FF0007FF46AAF002000F06DF800287FF464AF42
:1010000094F85830FF2B07D14521264806F0EAFA1C
:10101000FEE7022BF4D1EDE70022012B244D0392D1
:1010200014D01146204605F0E0FF78B12D6810225B
:1010300000210DEB020006F0CEFBE06C06F0DFFABB
:10104000206A06F0DCFA284609B0F0BD00222046EE
:101050001146FFF73BFE144F3B689842E6D12B68E0
:101060009842E3D0114B1B689842DFD0039B0133B9
:101070000393039B012B00D0FEE7206A05F055FE89
:101080003071236A5B6834603D68B360CFE700BFAE
:1010900074060020E3B6000054B60000A1B60000BC
:1010A0000FB7000039B70000700200204000002098
:1010B0004400002038B5064D044660220021284631
:1010C00006F089FB21462846FFF7A8FE38BD00BF81
:1010D0007416002013B5094B01A913F8300000F075
:1010E000CDFE48B9019806F012FE0446019806F0BC
:1010F00086FA204602B010BD0124FAE7A49C000045
:101100001FB50F4B01A913F8300000F0B7FEA8B9C6
:10111000019802A902F0E8F8044668B99DF80B307E
:10112000032B03D1019806F0C0FD0446019806F098
:1011300066FA204604B010BD0124F7E70124F8E761
:10114000A49C00002DE9F34106460C4617461D46B7
:101150000BB9002121E0184605F088FF0146002860
:10116000F7D13046FFF734FD18B9012002B0BDE8D1
:10117000F08101A905F0D1FE0028F6D10199304691
:1011800006F060F8736A59686B79012B18D1002C4E
:10119000DFD12B68834298BF00212C2303FB046618
:1011A0003A462023306A06F02BFA0028DDD1002DC4
:1011B000DCD038680D4BC01A18BF4FF0FF30D5E7B0
:1011C000022BC6D12B68012B05D98342C1D8B4FAB2
:1011D00084F46409BDE7BCD1002CDED0012CB8D169
:1011E0002C79023C18BF0124B3E700BF3DB8F39649
:1011F0002DE9F04F07460C4685B001460020164603
:10120000FFF7D0FC051E51DB3846E46D05F07AFE91
:101210005FFA84F94FF0000A4FF0010B4FF0FF34F2
:101220006B1E09FB03089DB9BAF1010F03DD4521CF
:10123000204806F0D7F9631C06D0FF2C2ADC40F2C8
:10124000011301343460B380284605B0BDE8F08F47
:101250006B1E00934146012338460DF10F0206F044
:10126000CFF9031E019323DB012238460DF10F0154
:1012700006F0B5FC019B40B15B4501D00AF1010AC3
:101280009B46009DA8EB0908CDE7B4F1FF3F08BFDE
:101290002C46F5E70223A4F580747371631004F003
:1012A00001040133013433603471CDE70725CBE706
:1012B0000125C9E745B70000F8B5866A456D0446C3
:1012C00005F0AFFFAE420AD06B1CB34207D0834299
:1012D00005D05721174806F085F90020F8BDB6F56E
:1012E000807F19D957211448F5E7626A02EBC302DF
:1012F0005768226D02EBC3025268974202D0572111
:101300000E48E8E701339D42EFD1204606F075F81C
:1013100028B957210A48DEE700231F46F3E7AE420B
:1013200005D9636A03EBC5035B68BB42E7D10120C3
:10133000D4E700BF68B70000A0B70000CFB7000037
:10134000FBB7000010B588B0044604A9006A01F09C
:10135000CBFF9DF81020012A40D0254B2549032AB8
:1013600008BF0B469DF81320492102929DF81220D8
:10137000214801929DF811200092204A06F032F98E
:10138000E06C06A901F0B0FF9DF81820012A27D0D3
:10139000174B1849032A08BF0B469DF81B2049210B
:1013A00002929DF81A20144801929DF8192000928B
:1013B000134A06F017F99DF81030012B12D19DF851
:1013C0001230032B0ED19DF81830012B0AD00D4896
:1013D000492106F007F9022008B010BD0A4BC1E709
:1013E000094BDAE70948492106F0FCF80020F3E749
:1013F00034B800003DB8000051B8000043B8000008
:1014000092B80000A2B8000038B80000C1B80000CF
:1014100070B54B6814461E4A03F0FF2393420646FC
:101420000D4686B02FD10B68012B2CD1204604A984
:1014300001F05AFF9DF81020012A26D0154B1649BD
:10144000032A08BF0B469DF81320492102929DF8FC
:101450001220124801929DF811200092104A06F0C5
:10146000C1F89DF81030032B0DD12146304605F010
:1014700073FE204606F019FC2046A96805F05BFDC6
:10148000204601F011FF06B070BD064BDBE700BF40
:101490000001000434B800003DB8000051B800005D
:1014A00092B8000038B800002DE9F04F1646054606
:1014B00087B00C466E48492106F094F8314628461C
:1014C00005F0C0FE6B6A824620465E6805F0CEFDE0
:1014D000E8B1E86D05F0FAFC0023AF6A013F334440
:1014E000984201D9013FFAE7BA4510D35721614824
:1014F00006F078F807FB06F357210AFB06625E4800
:1015000006F070F80123E37107B0BDE8F08FEB6CD3
:1015100021461A46284603932F6AFFF779FF63791D
:10152000012B4AD1D046DFF854B141E02268C2F124
:1015300001035344984539D86B6A012A196853F856
:10154000380003EBC80353F8083CA0EB0109A3EBF8
:10155000010304930FD1E368022B08D039462846D3
:1015600005F0FAFD22463946284605F00AFE2846CF
:10157000039905F0F1FD002332464946384605F04F
:1015800027FD049B3A4639462846CDE90096FFF7E9
:1015900019FC2146284605F076FD236801332360B7
:1015A00020B1DBF800300133CBF8003008F1FF3810
:1015B000B8F1000FBAD10123236002234FF00108D4
:1015C0006371C245A0D3236898454ED36A6A4FEA37
:1015D000C80352F83810083BD2F800B00491D15833
:1015E0002A6DD0581368A0EB03092379012B3AD157
:1015F000A1EB0B01002332463846059105F0E8FCCB
:1016000005994B463A460091284603990196FFF703
:10161000D9FB2146284605F036FD0223237118B177
:10162000164A136801331360002332464946039873
:1016300005F0CEFC049B3946A3EB0B03039A284626
:10164000CDE90096FFF7BEFB2146284605F01BFDBD
:101650002368013323600123237130B1074A1368E3
:101660000133136001E0022BDED008F10108A8E786
:10167000D8B8000001B9000030B90000D41600202D
:101680002DE9F0418AB005460E46174600211C227E
:1016900003A81C4606F09FF803F0CEFD024640B1B9
:1016A00045211D4805F09EFF002420460AB0BDE8F4
:1016B000F08144F24213ADF80C304FF40063DFF8D0
:1016C0005C802146CDE90538202202AB03A803F057
:1016D0007FFC044618B1024645211148E2E7402349
:1016E0002A46CDE9007341463346029806F0C9FD0B
:1016F000024670B145210B4805F074FF029803F0D3
:1017000039FC02460028D0D05721074805F06AFF6F
:10171000CBE70124F2E700BF61B900000008000632
:1017200081B90000A3B90000D1B90000BFF36F8FE9
:1017300072B600234FF0FF30094A03F12001013354
:10174000102B42F82100F8D100234FF0FF30044A5B
:1017500003F160010133102B42F82100F8D17047EA
:1017600000E100E0F8B54FF0FF3600250127194CE5
:1017700002F0AEFEC620C4F8086300F0A3FDE762E5
:10178000C4F85051D4F85031C4F84C51D4F84C310D
:10179000C4F82451D4F82431C4F8005504F5783441
:1017A0004FF48270C4F8086300F08CFDE762C4F85F
:1017B0005051D4F85031C4F84C51D4F84C31C4F8DD
:1017C0002451D4F82431044BC4F80055C3F80863FD
:1017D000F8BD00BF00600C5000E01050014B1B68CA
:1017E000184700BF48000020014B1860704700BF39
:1017F0004800002007B50B4600210246009103482F
:1018000000F006F803B05DF804FB00BFDD17000030
:101810002DE9F04F82464FF000098DB01D46531E52
:1018200001910393039B58785C1C252819D1002053
:101830004FF0FF381E464446034602360290317888
:101840000396392955D81F2914D8002900F0EF81B3
:1018500001992520D04701993078D04709F1020934
:10186000E0E7002800F0E3810199D04709F1010980
:101870000394D7E7A1F12002192AE9D801A757F864
:1018800022F000BFED1800005118000051180000B0
:10189000ED180000511800006D19000051180000EB
:1018A000511800005118000051180000B91900002B
:1018B000ED18000051180000CD1900007919000042
:1018C0005118000087190000A7190000A71900008F
:1018D000A7190000A7190000A7190000A719000008
:1018E000A7190000A7190000A71900000846013633
:1018F000A5E7582900F0EB80A1F16302D7B2172FBA
:10190000A6D8172AA4D801A757F822F0751B000003
:10191000F319000051180000511800005118000080
:10192000D3190000F31900005118000051180000ED
:10193000D319000051180000511800005118000080
:10194000A91A00005118000051180000491B00009E
:1019500051180000F3190000511800005118000040
:10196000A91A000051180000D31900002520019980
:10197000D04709F1010955E7029A4FF0000802F03B
:10198000FE020292B3E7002C0DDAB8F1000F0DDA77
:10199000029A002A00F043810A2224EAE47402FB3E
:1019A0000414303CA3E7B8F1000FF5DB0A2202FB78
:1019B0000812A2F130089AE7B8F1000F55F8042B8D
:1019C00080F22F81002A80F22E815442022202925C
:1019D0008DE7682903D1682B06D1482387E76C2956
:1019E00002D16C2B00F02181002B7FF431AF0B462C
:1019F0007DE77A2B06D1752955F8046B14D14FF089
:101A0000000B0CE06C2BF6D04C2BF4D1073525F0F5
:101A10000703752903F10805D3E9006B06D12028D7
:101A20003BD1854F013C09E04FEAE67BBBF1000F5B
:101A3000F5DA7642814F6BEB4B0B013C0DF12D0338
:101A4000059300230493304659460A220023FEF7EB
:101A500017FD059BB446303203F8012D5A46059315
:101A6000049BBCF10A0F8B4672F1000203F1FF31B7
:101A700006460491E7D2C3F1010B30330DEB0306A8
:101A8000B8F1000FA6F104066DDA029BD9077DD4E8
:101A9000A8EB0B03A4EB0B0413E02B280ABF684F41
:101AA000684F04F1FF34C9E770290FD155F8042BB2
:101AB0000023FAB96FF004034FF0050B614F624E3B
:101AC000053C029A920770D4A04666E078216C2B00
:101AD00003D1002355F8042B08E04C2BF9D107352E
:101AE00025F007031D465B6855F8082B232825D1F0
:101AF000880621D5554F023C002601F06001A1F176
:101B0000390B0DF12D0E02F00F01092988BF594440
:101B100030310EF8011D102A4FEA121141EA03710B
:101B20004FEA131C73F1000306F1FF3008D2C6F12F
:101B3000010B06F13003A1E7454FDCE7414FDBE73E
:101B400006460A466346DEE755F8046B304605F064
:101B500020FEB8F1000F834602DB4045A8BFC34614
:101B60004FF00008374FA8EB0B03002B92DDA4EBDE
:101B70000804A6E755F8043B4FF0010B8DF8183028
:101B8000304F4FF0FF33013C06AE9AE7A046EAE73C
:101B9000029320200199D047029BB8F10108F7D5A4
:101BA00024EAE472013C9144A41AB84606E0049386
:101BB00002920199D047029A049B9046424612F83D
:101BC000010B0028F3D11A46013A15D5002BACBF02
:101BD000C7EB03077F425B46013B15D5BBF1000F06
:101BE000A8BF5F4426464F44013E14D5002CA8BF31
:101BF0003F1907EB080915E604930292302001997A
:101C0000D047049B029ADFE70293019916F8010B73
:101C1000D047029BE0E701992020D047E4E701226A
:101C2000D5E6904663E6144661E64C235FE64846F7
:101C30000DB0BDE8F08F00BF29BA000027BA000040
:101C40002BBA000080B9000033BA00002DBA0000A2
:101C500030BA00002DE9F047058B0446280790466E
:101C600011D4022905F0070540F0CC80204605F08C
:101C7000E1FB78B10138218B042811D8DFE800F0AE
:101C8000C2106D85950001290CBF45F0100545F087
:101C90002005258388F31188BFF36F8FBDE8F08797
:101CA00001F0070AAA4500F0A5800027B9463E4684
:101CB000A368002B00F0BC8041F00801218388F369
:101CC0001188BFF36F8FA168002900F0BA800D68FA
:101CD000002900F0B680334652462046D1F80480F1
:101CE000C047002D76D02B6829461D46F0E701F04D
:101CF00007035A1F012A1BD8002221F00701062BD7
:101D0000276889B2C4E9002209D13B4603E0628B0F
:101D1000013262831B68002BF9D141F00201204699
:101D2000218305F087FB00287AD041F0200176E07E
:101D3000042B0AD121F0070189B22046218305F046
:101D400079FB10B141F020012183218B01F0070ABA
:101D5000AA454FD00027B946AAE7236921F0070119
:101D600041F00601062DD3F8009021832DD1B9F161
:101D7000000F3FD041F00801218388F31188BFF3A1
:101D80006F8F20463949C84729E021F007012369B0
:101D900041F0040189B2042DD3F804902183E6D0E8
:101DA00000274FF0040A3E4682E721F0070123692D
:101DB00041F0050189B2052DD3F808902183D6D0D2
:101DC00000274FF0050A3E4672E700274FF0060A4B
:101DD0003E466DE72B4687E7B9F1000FD1D1EFF30F
:101DE0001188202383F31288BFF36F8F238B23F096
:101DF00008032383258BEA062ED525F010032383C1
:101E000005F007056669218B002EBFF670AF002331
:101E10002768C4E9003321F0070141F00101218363
:101E2000218B4FF0000901F0070AAA457FF440AF6B
:101E3000002F9CD041F00801218388F31188BFF363
:101E40006F8F002FC8D03D68394633465246204632
:101E500005F01CFB2F46F4E7AB067FF51BAF25F022
:101E60002003238305F0070500E700BFB9740000D5
:101E7000014B036000207047B09C000070B5104B10
:101E80000D461C68B4B10F4B196800238B4202DB6E
:101E90006FF0010070BD224612F8106B864202D02E
:101EA00014460133F2E7E06806F00DF828B100208F
:101EB0002C60EFE76FF00C00ECE76FF01200E9E741
:101EC0004C000020B09C000010B5436888B002931D
:101ED00083680C46CDE9033200230A68C068CDE967
:101EE0000623054901AA059305F03DFD079808B9A9
:101EF000059B236008B010BD7176000008B5054849
:101F000005F08BFA044805F088FABDE8084003485C
:101F100005F083BA39BA00006ABA00009EBA000020
:101F200030BFFFF7FDBF00BF154B9A6A12F0007F6C
:101F30009A6A14BF1E201D2012F0807F9A6A18BF73
:101F40001F2012F4801F9A6A18BF022012F4002F7B
:101F50009A6A18BF212012F4802F9A6A18BF222093
:101F600012F4003F9A6A18BF232012F4803F9A6A45
:101F700018BF24206FEA02426FEA12429A62704749
:101F800000ED00E010B5194B0246986A9C6A10F407
:101F9000805F14BF1720162014F4006F9C6A18BFCE
:101FA0001820A40509D5986B986A000404D51AB1C5
:101FB0009A6A22F400429A6219200C4B9A6A12F42F
:101FC000806F9A6A18BF1A20D2050CD49B6A13F44A
:101FD000005F18BF1C20054A936A43F47F43936255
:101FE00000230B7010BD1B20F5E700BF00ED00E0E3
:101FF00010B51C4B0246986A9C6A10F0100F14BF73
:102000001120102014F0080F9C6A18BF1220A4079A
:1020100009D5586B986A000604D51AB19A6A22F05D
:1020200080029A6213200F4B9A6A12F0010F9A6A8B
:1020300018BF142012F0200F9A6A18BF1520D4067A
:1020400058BF9B6A074B9A6A920642BF5A6A22F4AB
:1020500000525A629A6A42F0FF029A6200230B70A1
:1020600010BD00BF00ED00E070B5444B06465B6854
:1020700000258AB0C3F3080385F31188BFF36F8F7F
:1020800002F07F40B0F17F4F11D102F00C00082820
:102090000DD010074CBF0E4601250022033B8DF8E2
:1020A0000720032B05D8DFE803F01E5C60592E469D
:1020B000F3E700249DF807309BB92022314602A89F
:1020C00005F07EFB099B002D53D0C3F3080222B913
:1020D0006FEA53236FEA43230993204602A905F0D0
:1020E00002FB0AB070BD254BDA6A9107E1D4DA6AC7
:1020F000002ADEDBDA6A5200DBD55A69B16942F4A4
:1021000080725A61BFF34F8FBFF36F8F5A6931F8F6
:10211000021C22F480725A61BFF34F8FBFF36F8F9E
:102120004DF60272914209D09A6AD2B242B10120B0
:102130000DF10701FFF75CFF0446BBE73468B9E720
:102140009A6A12F47F4F05D001200DF10701FFF7C5
:1021500019FFF1E79B6AB3F5803FAAD3FFF7E4FECE
:10216000EAE700200DF10701E4E700200DF1070187
:10217000EDE723F4FF7323F00103ADE700ED00E08A
:10218000064B5A6942F010025A615A6942F4806261
:102190005A615A6922F008025A61704700ED00E066
:1021A000EFF30880EFF3098101B57246FFF75CFF9A
:1021B00001BD00BF002080F31488BFF36F8F0020A3
:1021C00080F30A8880F30B880F4880F3088801F0B9
:1021D0008BF900200D490860BFF34F8F00F02CF8F9
:1021E000202080F311880A484FF40061401880F3E2
:1021F0000988EFF314800221084380F31488BFF3A9
:102200006F8F00F0A5F80000A056002094ED00E0CC
:10221000A0260020002318460649D1F89020C2F3DA
:102220000722934200DB7047C1F89830C1F8A00044
:102230000133F6E700ED00E010B572B6002484F338
:102240001388FFF7E7FF23464FF0FF300C4A03F1F6
:1022500020010133102B42F82100F8D100234FF068
:10226000FF30074A03F160010133102B42F82100CF
:10227000F8D162B6BFF34F8FBFF36F8F10BD00BFB1
:1022800000E100E01EF0040F0CBFEFF30880EFF355
:102290000980816911F8021C0229FFD001B572463C
:1022A00005F027FA01BD00BF00B2002807DB0123BB
:1022B0004109034A00F01F00834042F82130704773
:1022C00000E100E000B200280CDB012206494309CE
:1022D00000F01F008240203341F82320BFF34F8FCE
:1022E000BFF36F8F704700BF00E100E0054B42096C
:1022F00053F82220012300F01F0003FA00F01040E1
:10230000704700BF00E100E000B2002801F10101C8
:10231000ACBF00F16040064B4FEA4111C9B2ABBF00
:1023200000F5614000F00F0080F800131954704769
:1023300014ED00E0044B054A23F07F039360BFF3E4
:102340004F8FBFF36F8F70470000000000ED00E07B
:1023500008B5FFF7EFFF074AD2F8883023F470037F
:10236000C2F8883002F0D0F902F016FA00F028F82E
:1023700002F0D6F900ED00E0154680B506460C46A1
:10238000002282F30B88084FA7F5205888F30B88AA
:1023900087F30988002005498847204629461A46C0
:1023A000B04703488047FEE7A0560020137700009F
:1023B000217700001022014B1A61704700ED00E008
:1023C0000023202040F20F1210B5044CE118013315
:1023D000934281F80003F9D110BD00BF00E100E095
:1023E00008B5EFF30583064A103B02EBC30152F830
:1023F000330049688847BDE8084005F085B900BF4B
:10240000589300000121024B024A034800F0ECB847
:1024100000F0022000000020449D000010B50C7A5E
:102420000B6804F01F0223F01F031A43CB686409F2
:1024300023F01F03054943EA440343F00103C1F8B5
:102440009800C1F89C20C1F8A03010BD00ED00E05C
:1024500010B5074BD3F89030C3F30723013B9842E4
:1024600002D8FFF7DBFF10BD6FF01500FBE700BFE0
:1024700000ED00E02DE9F04F0F46144606464FF000
:1024800000084D4D85B0B84580F29280D6F8049092
:10249000B9F1000F36D0B9F11F0F40F2878019F063
:1024A0001F0F40F08380D6F800A01AF01F0F7DD1D7
:1024B000504605F04CF9834609EB0A00013805F057
:1024C00046F9834572D11BF1160F6FD05C456DDD67
:1024D000C5F898B0D5F89C10C5F898B0D5F8A030DC
:1024E00021F01F0143F01F0AD6E900321A44994235
:1024F00002F1FF391ED1CA4508D131465FFA8BF08F
:1025000005F02EF908F101080C36BCE73146C5F894
:1025100098B0D5F89C3022F01F0203F01F0313433C
:10252000C5F89C30E0B205F01BF910F1160F3DD054
:10253000441CE7E7C5F898B0D5F8A020013B23F08C
:102540001F0302F01F021343CA453146E0B2C5F82B
:10255000A030E8D005F004F910F1160F26D0C5F828
:1025600098B0D5F89C209DF808300AF1FF3A62F344
:1025700004038DF80830D5F8A0309DF808205B08DA
:1025800063F347128DF80820D6E900321344009314
:1025900023F01F035344A3EB0903013023F01F036F
:1025A0006946C0B20393FFF753FFBEE76FF015040F
:1025B000204605B0BDE8F08F00ED00E00522044B99
:1025C000C3F89420BFF34F8FBFF36F8F704700BFE6
:1025D00000ED00E0BFF35F8F0022024BC3F89420B0
:1025E000704700BF00ED00E010B5034C2278FFF704
:1025F00041FF207010BD00BF981E0020F0B541497A
:10260000414CD1F890302568C3F307239D4287B031
:1026100075D80020FFF7DEFF3C4BC1F8C030854283
:1026200016D13B4C01A82570FFF722FC0025064679
:10263000384FAE4213D1002023783249D1F8902090
:10264000C2F30722934254DBFFF7B8FF00202FE0CC
:10265000616801EB0011FFF7E1FE0130DFE701994E
:10266000280101EB0513DA683A40B2F5001F21D0CA
:10267000B2F5800F2BD0B2F5801F38D15A689B6815
:102680000958013B22F01F0003440120844623F037
:102690001F0340EA4C10CDE902218DF8100002A979
:1026A00020780593FFF7D4FE00281DDA6FF015009F
:1026B00007B0F0BD5A689B680958013B22F01F0023
:1026C00003444FF0020C012023F01F03E1E75A6896
:1026D0009B680958013B22F01F0003444FF0000C97
:1026E000022023F01F03D4E7237801332370013540
:1026F0009FE7C1F89830C1F8A00001339EE74FF082
:10270000FF30D5E700ED00E0509D0000AAFF440037
:10271000981E00200000F0FF08B5024804F07DFE7E
:10272000FEE700BFDBBA0000014B1860704700BF36
:102730005000002008B52C4A2C4B1A6000F070F8AD
:102740004FF47A612A48D0F82436C3F30802C3F361
:1027500009434B4382F480722649883201FB0233DD
:102760004FF4FA225B00B3FBF2F102FB1133224A71
:10277000B3F57A3F28BF0131C2F80419D0F82036EA
:102780004FF47A60C3F30801C3F30943434342F2B1
:102790001C5081F4807101F2172100FB01334FF4CA
:1027A0007A701B0AB3FBF0F100FB1133B3F5FA7F2B
:1027B00028BF01310E4BC2F81C17D3F840131C2957
:1027C0000CD1D3F84433012B08D13423C2F824367A
:1027D000D2F83C3623F40023C2F83C360122064BE3
:1027E0000020C3F8002608BD0020A10760000020DB
:1027F00000C0FF001C2500800000125048B1054BAE
:10280000054A1B68B3FBF2F35843044B43F0010342
:10281000184770476000002040420F00709C000085
:102820000122024BC3F80424704700BF002008E0D7
:102830000022024BC3F80424704700BF002008E0C8
:10284000084B70B5C31A0D4607499B1004465943FF
:102850004022064804F0D7FF2B4601462046BDE83B
:1028600070401847EC160020B76DDBB69892000058
:10287000402373B50B4C0093041B0B460D460A49CD
:10288000A41061430646094A094804F0E7FF011E07
:1028900005DA30462B4602B0BDE87040184702B05A
:1028A00070BD00BFEC160020B76DDBB6CB78000022
:1028B0009892000010B5EFF31184202383F312885F
:1028C000BFF36F8F074A136823F00201DB07116023
:1028D00002D4012005F026FA84F31188BFF36F8F2C
:1028E00010BD00BF3C17002070B500220121044636
:1028F00040F20510FFF708FD0F4800F019FF0F4BDD
:10290000984215D100F024FF26690D49304604F0A5
:10291000E0FD00280BDB012535642469084904F13A
:102920001C0004F0D6FD002801DB0020E56470BD2A
:102930006FF00400FBE700BFE97800000000AD0B7A
:10294000789D00000C22104B014602FB0033002052
:1029500030B4D3E90E529863EFF31180202484F34E
:102960001288BFF36F8F1C6C04F0C00444F00204A3
:102970001C6480F31188BFF36F8F1DB12B4630BCF0
:102980000248184730BC7047EC16002098920000AF
:1029900010B4EFF31182202383F31288BFF36F8FFB
:1029A0001648016841F002040460C80707D482F3A6
:1029B0001188BFF36F8F012010BC00F0DFBE1049FB
:1029C000D1F80C14C903F2D5EFF3118083F3128808
:1029D000BFF36F8F0B490B6C03F0C00343F002038E
:1029E0000B6480F31188BFF36F8F82F31188BFF3FC
:1029F0006F8F002010BCFFF7A5BF00BF3C17002061
:102A000000E01050EC1600202DE9F84301220746A3
:102A10003249D1E8EF3FC1E8E02F0028F9D133B9BE
:102A20002F4930484B60CB608A6004F065FD7B1E07
:102A3000012B2AD8012F06D12B4BD3F8503403F0A9
:102A40000303012B21D005F07EFA0546F8B9274B88
:102A50001B78E3B104220646234BC3F808234FF04A
:102A60000108214CDFF88890D4F84C24D4F84C3479
:102A7000D20315D503F00303012B01D0012F0FD191
:102A800035B386F31188BFF36F8FBDE8F883EFF39A
:102A90001186202383F31288BFF36F8F0125DEE7B1
:102AA000304604F045FED4F8403413F0FF03DBD188
:102AB000D4F80821002AD7D0C4F80831D4F8083156
:102AC0002023C4F84084C9F8A031C4F81080CBE7B3
:102AD0000422054BC3F80423D7E700BFE816002003
:102AE000D81600200817002000E010509B26002078
:102AF00000E100E008B5074805F0E5F938B10648FF
:102B0000FFF712FE0448FEF76FFE002008BD6FF0CD
:102B10001200FBE7189300001D2B00000A2838B5AF
:102B20000446074D04D1AB680D2128465B689847E1
:102B3000AB6803485B68E1B29847204638BD00BFE8
:102B4000189300000023024A0020C1E900237047C7
:102B500000501600004870479C9D0000024B0B601F
:102B600001231360704700BFA49D0000024B034A7D
:102B70000020C3F80C25704700B00450800000808E
:102B800070B5174D1446A84226D8C0F5B21303F508
:102B900080539A4220D8CAB142F20103114DC5F8C0
:102BA0000035A9B104F00CFEBFF35F8FD5F81834DF
:102BB000DB0706D4C4F308041CB10123AB60BFF3E8
:102BC0005F8F4FF40052074BC3F80025002070BD03
:102BD000FF2104F000FEE7E76FF01500F7E700BF04
:102BE000FF4F160000B0045010461A46084B10B5AF
:102BF000994209D8C1F5B21404F58054A24203D811
:102C000004F0DEFD002010BD6FF01500FBE700BFF3
:102C1000FF4F160038B545682B69E3B110352846DB
:102C200001F02AFA0446B0B90146284601F0E6F957
:102C30000B4B984211D1224628460A4901F0B2F9BD
:102C400022460121DB20FFF75FFB2246012140F2F3
:102C50000D10FFF759FB002038BD6FF00400FBE7B3
:102C60000000AD0BED2D00002DE9F04340F20635DC
:102C70004668D00648BF0320337B02EA050558BFEB
:102C8000C2F3401087B001F01F07B5F5837F1446EB
:102C900047EA43178DF8030046D00FD8062D45D0DC
:102CA00007D8B5B1022D14D06FF0150007B0BDE8FC
:102CB000F083B5F5807FF7D101250AE040F20222CA
:102CC000954235D0B5F5407F34D0B5F5007FEBD1D6
:102CD00004250123220303FA01F12DD573685960FD
:102CE000326972BB5F2F07F01F034FEA571175D887
:102CF0003C4A52F8212084F4803102EB8302D2F85E
:102D00008030C1F30041C4F3404423F4706344EACB
:102D1000410423F00F031C4344EA800444EA0524E1
:102D2000C2F880400020C1E70925D2E70825D0E796
:102D30000625CEE70525CCE7630344BF7368996099
:102D4000CEE71036394630460DF1020201F038F96F
:102D500014F4403F80460CD13946304605F0A7F8C0
:102D6000214B9845DED130469DF8021001F092F9D2
:102D7000D8E74FF0000901AB3946304603AACDE948
:102D80000439CDE90199CDF80C9000F081FF164B84
:102D9000984289D114F4003315D09DF8033084F49F
:102DA0008034C4F300448DF80E3039464B4630462B
:102DB00003AA8DF80C508DF80D4001F05FF80A4B16
:102DC0009842CDD070E7CDE9043339460DF10303C5
:102DD000304603AA039300F05BFFF0E7203352F87C
:102DE0002330FFDEAC9D00000000AD0B4209022A3B
:102DF000034670B503D0012A18D0CAB170BD0E4E7B
:102E0000326951680029F9D0012503F01F030C68CD
:102E10009D400029F2D08A682A4002D030464B6893
:102E200098473CB1236821461C46F2E7034EE7E78A
:102E3000034EE5E72346F6E7F8920000D89200003B
:102E4000B8920000F0B5406801F01F04057B87B020
:102E500044EA45140569002D63D0B2F5001F00F166
:102E6000100506D12146284605F023F8002007B0BA
:102E7000F0BD0027B2F5800F01AE019777603BD11E
:102E8000B3F1007F14BF052304238DF80430002321
:102E9000CDE904630393836823FA01F111F0010182
:102EA0001CD1B2F1A07F19D104F01F035F2C4FEAAF
:102EB000541003F120033AD81E4A52F8202052F849
:102EC0002330DB070AD40DF103063246214628469B
:102ED00001F076F8184B984219D002962146284600
:102EE00003AA00F0D5FE154B98421DD101222146C0
:102EF000284601F0E7F8B9E7B3F1C06F05D0B3F1A8
:102F0000007F14BF01230223BFE70323BDE731463F
:102F1000284601F0CBF8094B9842DED06FF00B0049
:102F2000A5E76FF08500A2E76FF015009FE751F865
:102F30002330FFDEAC9D00000400AD0B0000AD0BA4
:102F4000036803F01F025F2B02604FEA53129ABF1F
:102F5000024B53F822000020704700BF009E000083
:102F60002DE9F04F1546074640F2FF19DFF864A13E
:102F7000DFF864B185B000EB8101B94203D10020D4
:102F800005B0BDE8F08F3B68C3F3C322082AC3F342
:102F9000080400F29B804C4508BF4FF0FF34B3F1AA
:102FA000D05F1AF802804FEA136210D2192A10D8A3
:102FB000DFE802F012181F5A22285A0F0F0F0F0FC6
:102FC0000F0F0F0F0F0F0F0F0F0F5D707376382A53
:102FD00069D06FF08500D3E7C5F80446631C4FD174
:102FE0000437CAE7C5F80C46621CF9D00026324601
:102FF00016E0C5F81046F1E7661CC5F80046EFD0AC
:10300000002604E0601CC5F80446E9D0012603A8A8
:103010000394FFF795FF0122039B02FA03F38360F9
:103020003B68039403F40040002818BF002203A863
:1030300018BF012601930092FFF782FF039C019BBA
:1030400000EB8400D0F88040C3F3412C009A4FEA93
:10305000082343EA8C03134304EA0B04234343EAA3
:103060004603C0F88030BBE7C5F80846BCE7C5F8A2
:103070006045621C3B68B3D0C3F30043002BC5D04E
:10308000012603A80394FFF75BFF039B06FA03F3F3
:103090004360ACE7C5F86445EBE7C5F86845E8E789
:1030A000C5F86C45E5E703A80394FFF749FF039BC8
:1030B00000EB8300D0F8803023F0E04343F08043FE
:1030C000C0F88030631C8BD0012690E76FF01500AC
:1030D00056E700BF35BB0000F0F0FCFF2DE9F041E2
:1030E00004460D46476804F02EFF80B9254B1B7837
:1030F0006BB14FF02008642663681B68D3F8303149
:103100006BBB012004F00CFE013EF5D1F3E720215A
:10311000EFF311831A4681F31288BFF36F8F606853
:103120000068D0F8300120B983F31188BFF36F8FA6
:10313000EEE77B6A00201D706368796A1B68C3F83C
:103140003C170121C3F84017C3F83001D3F8300110
:10315000196582F31188BFF36F8FBDE8F081EFF33B
:1031600011831A4688F31288BFF36F8F616809686C
:10317000D1F830110029DCD183F31188BFF36F8FB0
:10318000B9E700BF9B26002073B514461D4668466C
:1031900001F07AF8009BA342019BAB4114D30B4A88
:1031A000D2E90061A41B24F01F0365EB0100640950
:1031B0009B1941EB000144EAC060C2E9003102B052
:1031C000BDE8704001F028BB02B070BDE0010020F6
:1031D00010B500220121E420FFF796F8124A0020E2
:1031E000D2F8183723F44033C2F8183701F07EF8CC
:1031F0000E4B0446984208D101200D4901F004F914
:10320000A04205D00B4B98420AD04FF0FF3010BDC2
:103210006722094B02201A60FFF7F6FB0020F6E751
:103220006FF00B00F3E700BF00200E500000AD0B65
:103230005C0000200200AD0B6C1700207FB5431C22
:1032400018BF20EAE07502A808BF6FF0004501F042
:103250001BF802990E4B2020D3E900268C1A039903
:1032600061EB06032146C5FB0013402973F10004FE
:1032700036BF014621F01F01002352184FF0010113
:1032800046EB03030091034801F070F904B070BDF0
:10329000E0010020540000204FF40061014801F0DB
:1032A00049BC00BF9B1E002030B5816885B0103935
:1032B00021F00F04054604F0D4F9102201466846B7
:1032C00004F089FA10226846064904F079FA1023BE
:1032D0006A462146284604F0A8F9003818BF0120A4
:1032E00005B030BD3AB4000030B50D46816887B0F6
:1032F000102302AA1039044604F082F9002802DAE9
:10330000012007B030BD1022204602A904F067FC5E
:1033100000283AD110221E4902A804F041FA0028E0
:103320000CBF012302232B70204604F044FC012330
:1033300001460DF10702204604F062F90028DFDBA8
:103340009DF80730204603F00F021B096A702B71AD
:1033500001220DF1070104F042FC10B96B78042B37
:1033600003D901236B7000232B71A2682046203AF9
:1033700022F00F02103AA91C04F044FC0028BFD12F
:103380002046E91C04F098FCBBE70323CBE700BF11
:103390003AB40000F0B5354F85B0460005466946A1
:1033A00057F8260004F08EFC044610B1FF2005B04B
:1033B000F0BD013657F8260002A904F083FC01286D
:1033C00037D12A4649212A4804F00CF9294B8DF8B7
:1033D0000C40029300229DF800609DF80870264C76
:1033E0003146207804F0EDFB50B33946607804F0A4
:1033F000E8FB28B3A378042B03D09DF8031099426F
:103400001ED1E378042B03D09DF80B10994217D1FD
:103410002379042B10D16279022A1DD1174B184849
:103420002A46492104F0DEF86079831E022BBED9BA
:10343000BCE70028CED0B9E79DF802109942EAD047
:103440000132032A04F10604CAD10E482A46492152
:1034500004F0C8F80120AAE7032A05D00A4B0B495B
:10346000042A08BF0B46DAE7094BD8E75C9E000048
:103470006CBB00000301030301BC00004EBB000055
:10348000B7BB0000DBBB000053BB000065BB000006
:1034900049BB0000064BD3F840231C2A05D1D3F8C2
:1034A0004403431E5842584170470020704700BFF4
:1034B00000C0FF0003689A070CD50368DB070DD531
:1034C0000922074BC3F80C250F22C3F8042501225B
:1034D0001A60FEE7034B0360EF3B0360704700BFD9
:1034E00000801050F000FA50012208B5334B3448E8
:1034F000C3F80028FFF7DEFF0830FFF7DBFF0830D6
:10350000FFF7D8FF0830FFF7D5FF00F5F470FFF79D
:10351000D1FF2C4AD2F88C3043F44063C2F88C308F
:103520000022D30003F57F0303F54043D3F80014D2
:1035300001310AD0D3F8001439B1D3F800140132A4
:10354000D3F80434402A0B60EBD11C4BD3F8402451
:103550007AB3FFF79FFF48B11B4BD3F834231B4BC3
:103560009A429EBF154B1A4AC3F84026FFF792FFB6
:1035700018B1184B184AC3F8AC27FFF78BFF48B1B6
:1035800034220E4BC3F82426D3F83C2622F4002222
:10359000C3F83C260323114A0A49C2F81835D1F86A
:1035A0008C3043F44063C1F88C300023C2F8A0355E
:1035B00008BDC822C3F84024CBE700BF000012506A
:1035C00000C50D5000ED00E000C0FF00001D0A180E
:1035D00040E0A91E00A0085078000A0400B0045082
:1035E00030B50468ACB1B4FA84F30122C3F11F030F
:1035F000DBB29A4024EA0202D0E8EF5FA54204D190
:10360000C0E8EC2FBCF1000FF6D1EAD102480B70F4
:1036100030BD0248FCE700BF0000AD0B0200AD0B5F
:1036200010B50368CB40DB0710D401238B40026840
:1036300043EA0201D0E8EF4F944204D1C0E8EC1F06
:10364000BCF1000FF6D1F2D1014810BD0148FCE7F2
:103650000000AD0B0400AD0BF7B5064648B30128DA
:1036600025D104224FF4807371202F490024C1F822
:103670000803012002F1A04203F1A04303F58713E0
:1036800002F5871210601C601B68284BD3F840338A
:103690001C2B13D0864201D10DF10704002342F206
:1036A0001075214F8DF8073066B1012E28D003B078
:1036B000F0BD14224FF484730420D6E7012EEDD11F
:1036C000CE60E9E7D7F84C3403F480333CB9002BE3
:1036D000EDD0012004F024FB013DF3D1E7E7D7F85A
:1036E0004C2402F003022270002BE0D09DF807303A
:1036F000002BDCD1012004F013FB013DD4D1D6E72F
:10370000D7F80C3403F480333CB9002BCFD0012020
:1037100004F006FB013DF3D1C9E7002B0CBF0123E8
:1037200000232370E2D1C2E700E0105000C0FF0088
:10373000044B1A7922B9012218601A7102487047A5
:1037400002487047701700200000AD0B0C00AD0B55
:1037500008B5084B1B6843B140F20510FEF7C6FDE3
:1037600018B940F20510FEF79FFD0022024BC3F886
:10377000402408BD7017002000E0105010B510B1B3
:10378000012845D010BD324BD3F84C14D3F84C244B
:10379000C80324D502F00303012B04D013B1002089
:1037A000FFF75AFF00232A4A0420C2F840341022AF
:1037B0004FF48473002103F1A04303F587131960CC
:1037C0001C68012402F1A04202F587121460214A0C
:1037D0001268002A36D01E4BC3F80403D2E7D3F890
:1037E0004824D107DED5D3F850249207D7D4194AFC
:1037F00012681AB10422C3F80423C3E7D3F80821DE
:10380000002AFBD00022C3F80821D3F80831B9E719
:1038100000220F4BC3F81021D3F81011C3F8182160
:10382000D3F81811C3F81421D3F814210A4AD2F896
:1038300040231C2A04D000224FF480737120B9E782
:103840009860F8E71A68002AFCD019601B6899E7AD
:1038500000E010507017002000C0FF0070B5002578
:103860001D4C1E4ED4F80C3303B970BDB3FA83F36C
:10387000C3F11F039A0002F5807292B202F1A042D6
:1038800002F58712156012680122D8B202FA03F31A
:10389000DBB2102BC4F8083311D0402B1AD0042B04
:1038A00015D1D4F84C14D4F84C1489070FD1C4F8AE
:1038B0004024C4F804332261D4F80C33D4E7757182
:1038C000C4F81451D4F814312023C4F804333368F5
:1038D0009847F1E77571FAE700E010507017002083
:1038E000036803F01F025F2B02604FEA53129ABF76
:1038F000024B53F822000020704700BF649E000076
:10390000034A4309D35C00F01F001844C0B270475B
:1039100013BC000070B505460846FFF7F1FF3621DD
:103920002A79174B01FB0202083233F81200C10555
:1039300025D56C240026C0F3432120F4F85023F849
:1039400012002A7904FB02340E3434F8020F10F40A
:10395000807F03D0C0F34320814210D00136232E54
:10396000F3D16C200024424302EBC1029C502A791F
:10397000BDE8704000FB02306030FFF751BE70BD03
:1039800064000020F0B50646002487B0114F019175
:1039900017F8012B06AB03EBD20313F8143C02F02B
:1039A0000702D34013F0010306D10134032CEFD1F9
:1039B0000023184607B0F0BD074A03AD07CA85E8E3
:1039C000070055F824100A6A46F824200A62002AE3
:1039D000EBD0EEE723BC0000509C000010B504467D
:1039E0000846FFF78DFF362303FB0400024B083027
:1039F00033F81000400B10BD6400002010B50446E1
:103A00000846FFF77DFF362303FB0400034B083015
:103A100033F81000C0F3400010BD00BF6400002068
:103A200010B504460846FFF76BFF362303FB04007E
:103A3000034B083033F81000C0F3401010BD00BF36
:103A4000640000202DE9F04F0D46D0F8141387B024
:103A5000C9B241F40031AA6D009004F0DCF9810391
:103A600006462ED50023696E03A8CDE903330593DE
:103A7000FFF788FFDFF868A1DFF868B10DF10C09E6
:103A80001AF8013B05EBD30292F8642003F0070318
:103A900022FA03F3DA076AD4534B09F104095345B8
:103AA0000BF1010BECD14FF40031AA6D009804F03A
:103AB000B2F9696E03A8FFF765FF0028DAD126F492
:103AC00000360124002E73D107B0BDE8F08F91FAC3
:103AD000A1F1B1FA81F19BF8004041EA441420467B
:103AE000FFF70EFF083035F81080C8084FEA98033A
:103AF0000193012319F8002001F0070103FA01F1F5
:103B000022EA010209F8002002A80294FFF7E8FE69
:103B1000029A019B203250F82220C8F382075B07EB
:103B2000B846C2F3014227D52846D7B221464246BD
:103B300004F052F902A80294FFF7D2FE029B203350
:103B400050F82330C3F301439F4207D100212046A0
:103B500004F033F93946204604F02FF902A8029404
:103B6000FFF7BEFE0122029B02FA03F30362D9F8BB
:103B700000100029ABD18FE7022A0DD10321204686
:103B800004F01BF907F00503012BE7D1424621465B
:103B9000284604F021F9E1E702212046019204F0D1
:103BA0000CF9032FF2D0019A032AD7D1022FECE7A8
:103BB00096FAA6F3B3FA83F304FA03F226EA0206AE
:103BC000009A284602EB8303D3F81015D3F810258A
:103BD000C1F30811C2F3014204F0FEF872E700BF1E
:103BE00023BC000023BC000026BC00002DE9F743E5
:103BF00005460846FFF784FE36222B79204F02FB4C
:103C00000303083337F813300E46DB07044635D577
:103C1000284604F027F995F8049031464846FFF706
:103C2000FFFE60B14846FFF7D9FE0022D5F80080BC
:103C300000B208EB8003C3F81025C3F8102528460E
:103C40003146FFF767FE36222B7901A802FB0344B9
:103C50000023083427F814300196FFF741FE019B3A
:103C600000EB8300D0F88020064B134043F00203A2
:103C7000C0F88030044803B0BDE8F0830348FAE799
:103C800064000020F0F0FCFF0000AD0B0400AD0B61
:103C90002DE9FF47174604460846FFF731FE3E6808
:103CA0008846054676B394F804904846FFF7A6FE8A
:103CB00018B14846FFF7B4FEA0BB00234046CDE94B
:103CC00000338DF80E308DF80F300DF10F023346B2
:103CD0000DF10E0104F028F836202379644A00FB28
:103CE0000353083332F8131021F0020122F81310A5
:103CF000237900FB0353083332F8131041F001011C
:103D000022F813107B68002B45D0267941463046B7
:103D100093F80090D3F804A0FFF770FE20B1BAF139
:103D2000000F22D0534839E04FF0360C0CFB0656FA
:103D30004F49083631F8163023F4604323F020034E
:103D400021F81630BAF1000F0FD0B9F1030FE9D8FE
:103D50007B6826685B68187806EB8006B9F1000F6F
:103D60001FD1C6F81095C6F8109536202379404A21
:103D700000FB0353083332F8131021F01C0122F822
:103D80001310237900FB0353083332F8131041EA70
:103D9000890122F81310BB6863BB374804B0BDE843
:103DA000F087D6F8102522F00302C6F81025226805
:103DB00002EB8003D3F8102522F4473222F47C7200
:103DC000C3F8102541F6F072D3F8106502EA081224
:103DD00042EA09423243C3F8102523790CFB03530E
:103DE000083331F8132042EA403242F0200221F831
:103DF0001320BAE74146D3E900972046FFF78AFD32
:103E0000B9F1000FC9D06C232079194E4343F21841
:103E1000F358994504D153689F4201D100210CE029
:103E20006C2303FB00600DF10F016030FFF7D8FB3E
:103E3000114B9842B2D19DF80F106C222379534355
:103E400003EBC10346F8039023795343362203EB77
:103E5000C10333445F60237902FB0353083336F810
:103E6000132042EA412242F4807226F8132094E79C
:103E7000640000200400AD0B0000AD0B2DE9FF47EE
:103E80000546084617461E46FFF73AFD8946044692
:103E900087B395F804804046FFF7B0FD18B9404657
:103EA000FFF7BEFD68BB362303FB0848DFF8E4A03C
:103EB00008F108083AF8183013F01C0F02D07B788C
:103EC000012B1ED001238DF80F3000237A1CCDE981
:103ED00000734846BB1C0DF10F0103F025FF36228D
:103EE0002B7902FB034308333AF8132042F0030214
:103EF0002AF81320002E4BD049462879FFF77EFD83
:103F000018B9254804B0BDE8F08700214FF0360C01
:103F100030782B68820003EB8003C3F81015C3F8D8
:103F200010152B791B490CFB0343083331F8137030
:103F300027F4604727F0200721F8137077783FB304
:103F40002B68B6781A44D2F810E5144B3F040EEAF9
:103F50000303C2F8103541F6F07307F4403703EA63
:103F600009133605D2F810E53B4306F480163343B7
:103F700043EA0E03C2F810352B790CFB03440834D6
:103F800031F8143043EA403343F0200321F8143071
:103F90000348B7E7640000200400AD0B0FE0ECFF1E
:103FA0000000AD0B30B56C250479044B05FB0434DF
:103FB000A160017905FB0133DA6030BD64000020A7
:103FC00070B5067914463046FFF72AFD68B10846F9
:103FD000FFF796FC362303FB0600054B083033F849
:103FE000103004485B0B237070BD0348FCE700BF32
:103FF000640000200000AD0B0400AD0B2DE9F04182
:10400000064607796C20194D00FB075898F8684060
:104010004CBB404621464622103003F0DCFB2146D3
:104020003068D8F858608E4213D10023C0F844316C
:10403000D0F84431C0F308300130FEF735F96C2375
:1040400003FB075501230A4885F868302B66BDE855
:10405000F081CBB29B0003F58072442B04BF8450E7
:1040600083580131DFE70348F1E700BF6400002017
:104070000000AD0B0C00AD0B6C210279044B01FB71
:10408000023393F86800003818BF0120704700BF62
:10409000640000206C235C22007913FB002302489B
:1040A0001844FFF7BDBA00BF640000206C235C22F7
:1040B000007913FB002302481844FFF791BA00BFB0
:1040C000640000202DE9F34103681746D3F8142358
:1040D000044692035CBF4FF40032C3F81423067900
:1040E0000D463046FFF79CFC08B33046FFF786FCD0
:1040F0008046E0B93046FFF771FC05B22168AD009B
:1041000005F5807241F802808A5821682944D1F867
:10411000102542F00102C1F810252FB101222168BB
:1041200002FA00F3C1F8143302B0BDE8F08128466A
:10413000FFF7E6FB362303FB06000F4B083033F88E
:104140001030C3F38203042B11D0052B11D001A82A
:104150000195FFF7C5FB019AC368D34003F0010343
:10416000991C284602B0BDE8F04103F026BE0321A9
:10417000F7E70221F5E700BF64000020014902488B
:10418000FFF760BC6400002000A00D500149024808
:10419000FFF758BCD000002000C010500123054A92
:1041A00083409268134013F0670F14BF0120002072
:1041B000704700BF3C0100200123044A03FA00F0CD
:1041C000936823EA00039360704700BF3C0100201E
:1041D00070B5002367240126027A94FAA4F1B1FA9B
:1041E00081F1914203F1010518D100210C24120143
:1041F00002F1A04202F56222C2F82C150A4ADBB293
:1042000004FB03230168D960416819610121007A28
:104210001875936881400B43936070BD06FA01F1F5
:104220002B4624EA0104D8E73C010020074B027A20
:10423000D3F8101521F001010A43C3F810250268D4
:10424000C3F8A4264268C3F8AC26704700200E507D
:10425000012303FA00F010F0670F0AD0064B5B68E9
:10426000DB4303F067030342044B054818BF1846BD
:1042700070470448704700BF3C0100200000AD0BB0
:104280000400AD0B0800AD0B002300222DE9F0481F
:10429000C0E90023114BD3F810359B071CD5EFF371
:1042A0001181202383F31288BFF36F8F4FF0FF3506
:1042B0006FF040440A4ED6E900BC5D4574EB0C0734
:1042C000F9D3CCF31303C0E900B381F31188BFF332
:1042D0006F8F0448BDE8F0880348FBE700200E50CC
:1042E00040270E500000AD0B0100AD0BF0B53B4D6B
:1042F00085B02C78002C6DD1394A01AB07CA83E810
:10430000070038491846D1F8102522F00202C1F8FA
:104310001025FFF78BFF0723672202F001012144DC
:10432000013BCCB24FEA5202F7D1052C54D11A46C8
:1043300001272A48002467265FFA82FC96FAA6F134
:104340005FFA84FEE645B1FA81F13DD30132052AD8
:10435000017500F10C00EDD10120002422499A08DA
:1043600000FA02F212F0670F1CBF5C505A58043377
:10437000302BF4D1E420FDF797FF1A4B1B49D3F8FB
:10438000102503F5C07322F00202C3F8902340F613
:10439000FF72C3F8A82100221A60A3F580700433CD
:1043A0008B420260F8D101240E4B114A1C66114B5E
:1043B0005D201B68B3FBF2F358430F4B2343984730
:1043C0000E482C7005B0F0BD07FA01F126EA01068F
:1043D0000134B3E70A48F5E70A48F3E73C01002057
:1043E0005C9C000000200E5000210E50B0210E50A9
:1043F00040420F0060000020809C00000000AD0BD8
:104400000C00AD0B0100AD0B73B52A4C054663687B
:104410000E4603F0010304F1140101A80193FFF714
:10442000DFF8254B98423DD100233370636823F0B9
:1044300001036360A36843F00103A3601F4BD3F83B
:104440001025960732D4D3F8102542F00202C3F8A3
:104450001025C5B1D3F8482712F0010202BFD3F8E6
:10446000481741F00101C3F84817144BD3F840171F
:10447000D3F844174C00F9D42AB9D3F8482722F0CE
:104480000102C3F848270E4B0E4A1B68B3FBF2F338
:104490000A4A03EB43135BB1D2F84017D2F8441732
:1044A000490001D402B070BD013BF4E70648F9E7CA
:1044B0000648F7E73C0100200000AD0B00200E503D
:1044C0006000002040420F000C00AD0B0700AD0B58
:1044D0002DE9F8430025224E672374684FF0010848
:1044E000E443A9461F4F04F06704C7F82833E9B234
:1044F000DCB9E420FDF7E6FE1A4BD3F8482722F09A
:104500000102C3F84827D3F8102522F00102C3F8AE
:104510001025D3F8102522F00202C3F8102501223D
:104520005A669A663470BDE8F8830846FFF736FE8F
:1045300098B10846FFF740FE736808FA01F2DB43C2
:1045400003F06703134208D007EB0113C3F82C955F
:10455000E30702D50448FFF763F864080135C6E7AE
:104560003C01002000200E50400100202DE9F041C8
:104570000446007A1D46FFF76BFE1A4B1746984219
:1045800006469DF8188029D12046FFF721FEEFF35B
:104590001180202383F31288BFF36F8F227A124B8E
:1045A0009200134400221A60217AC5F31305090111
:1045B00001F1A04101F562211B68C1F82075C1F825
:1045C000245580F31188BFF36F8FB8F1000F05D029
:1045D0000123227A9340054AC2F824333046BDE8CD
:1045E000F08100BF0000AD0B00210E5000200E50E6
:1045F000F7B5254A002053689268DB4303F0670350
:1046000013401C46012607460CBB01271F4B1E4DBD
:10461000D3F820630640287D07FA00F333420FD019
:10462000E96869B10201D5F810C002F1A04202F5B3
:104630006222D2F82435D2F82025CDF800C0884770
:104640000134052C05F10C05E5D103B0F0BD94FA59
:10465000A4F5B5FA85F5AA0002F58071920806FA6C
:1046600002F213420BD001F1A04101F56221D1F811
:1046700000C0BCF1000F02D00F600968104306FAB9
:1046800005F524EA0504BFE73C01002000200E5098
:10469000044B40EA0120C3F80005D3F80024D207F8
:1046A000FBD5704700B0045038B50A4B53F8204092
:1046B000013053F82050A54200D838BD606830B1B1
:1046C000037FDB0701D403F023FC0834F3E72368FE
:1046D0009847FAE7709E0000012208B5084B0320B6
:1046E0001A70FFF7E1FFFDF709FC0420FFF7DCFF7C
:1046F000FCF762F8034A137B23F00103137308BD30
:104700009B260020E801002008B50348034A002149
:10471000121A03F014FC08BDE0010020A0260020BE
:1047200008B50020FFF7C0FF184B03F5006282F3C5
:10473000088883F30A880025E023154C84F822308A
:10474000E57725766576A57684F82050636A43F48C
:10475000E023636284F82350FDF712FDFDF72AFE83
:104760004FF0FF33A362E362FDF748FFFDF74AFE17
:1047700003F0A8FB0120FFF797FF0220FFF794FF4B
:104780002B462A4629460348FDF7F6FDA0260020C1
:1047900000ED00E0D9460000074808B5074A08497F
:1047A000121A03F0CEFBBDE808400648064A074946
:1047B000121A03F0C6BB00BF40000020DE0100203B
:1047C000CCBE00004000002040000020CCBE000015
:1047D000024B1868984208BF0020704790010020E3
:1047E00030B570B10B4B5B6898420AD0036843B197
:1047F000D3E90421D0E90445121941EB0501C3E9CD
:104800000421D0E9003213605A600023C0E900336C
:1048100030BD00BF900100202DE9F047EFF3118576
:10482000202383F31288BFF36F8FDFF89C9000265C
:10483000C9F800000027FFF7CBFFDFF89080D9F818
:104840000030D8E900ECD91750B1D0E90442A342B6
:1048500071EB020A19DAE41A62EB0102C0E90442C0
:10486000002413EB0E034CEB01012046C8E9003194
:10487000C9F8004003F06DFB2146FEF7DFFC85F32D
:104880001188BFF36F8FBDE8F08714EB0E024CEB7D
:10489000E473C0E90467C8E90023FFF7A1FF85F3CB
:1048A0001188BFF36F8F83689847EFF3118520233A
:1048B00083F31288BFF36F8FD9F800301B1BC9F840
:1048C0000030FFF785FFBAE7781700206802002064
:1048D00001680E4A0346914215D1C169A2F1102226
:1048E000A2F1EF1291420ED18268012A0BD8C26860
:1048F00012B101698A4206D0586928B19B691B1A16
:104900005842584170470120704700BF55AA00FF28
:1049100070B50D4B9E68A6B13046FFF7D9FF04462F
:1049200078B9F3686BB935690DB9204670BD284672
:10493000FFF7CEFF28B9EB68B34202D12E462D69AE
:10494000F2E70124F1E700BF7C170020F8B5384EEC
:104950003468F368D4B1B468C4B1002860D00029C9
:104960005ED001FB00F5B5FBF0F0884258D1291D5F
:1049700056D8AA070CD025F0030204321C4603E0E7
:10498000616891424ED2A469002CF9D12046F8BD4D
:104990002A46F3E7891A232904F120071CD80123AA
:1049A000A360D4E90523AAB19361A3690BB162693D
:1049B0005A610023C4E905333369DB0703D5FFF7E8
:1049C000A7FF002831D12A46002138463C4602F094
:1049D00002FFDBE7F360E8E702F1200C04EB0C03D5
:1049E0002039C3E90110DC6021691248196144F8DB
:1049F0000C00A0F11020A0F1EF10D86101B1CB6044
:104A000061695961A069986141B18B61996901B18E
:104A10004B6101212361C4E90121CAE7F360F5E795
:104A20000024B3E7A0680028B4D00120FDF774FE8D
:104A30007C17002055AA00FF70B50546002840D01D
:104A40003B4E3368002B3CD0B268002A39D08342F9
:104A500003D872681344984202D30120FDF75CFE2C
:104A6000A0F120042046FFF733FF0028F5D155F8C8
:104A7000183C012BF1D155F8143C45F8180C0BB338
:104A80009A68FAB955F81C2C02F120015A680A44B8
:104A90005A6055E905321A6155F8145C2B6903B167
:104AA000DD6020220021204602F095FE286908B131
:104AB00083684BB333699B0703D5FFF729FF0028B1
:104AC000CBD170BD55F8100C00282AD0836843BBA9
:104AD0004268636813442033636003692361D4E947
:104AE00005239AB9CBB9436963618269A261B3B105
:104AF0009C61A36903B15C61236903B1DC6020227E
:104B0000002102F068FED5E72C46E1E79361A36936
:104B1000002BE8D062695A61E5E7F360F7E7F460DB
:104B2000E7E7F36845F8083C03B15C61F460C1E76E
:104B30007C17002038B50C46142200210546134886
:104B400002F049FE1249134800F034F8232C1CD916
:104B500015F003031FBF043CE418C3F10403ED1870
:104B600022460021284602F036FE084B0A49C3E9D6
:104B70000054203C9D606C609A6811609A68A1F1B5
:104B80001021A1F1EF11D161DA6038BD7C1700204E
:104B9000394A00004D49000055AA00FF014B1B682F
:104BA000184700BF9C010020014B1B68184700BF3D
:104BB00098010020024B1860024B002019607047DA
:104BC0009C0100209801002010B50A46044619B146
:104BD000024B00211B68984710BD00BFA0010020B8
:104BE0000E4B0340B3F1607F06D1B1F5885F14BF6F
:104BF0006FF0860000207047B3F1707F0BD101F495
:104C0000E043B3F5005F06D111F4E06F0CBF6FF025
:104C10008600002070476FF0860070470000C07F5C
:104C20008A42F8B506460C4600F0DB806F4922F454
:104C3000FF7323F001038B420ED06D4B22F0FF0176
:104C4000994209D06B4822F47F7323F00303834217
:104C500002D0694B994228D1684B24F0FF01994258
:104C60000FD114F0FF000BD0654B40F0007098425C
:104C700040F0B98082EA0400FF288CBF00200120A8
:104C8000F8BD5B4B9942ECD0A3F588539942E8D02C
:104C900024F4FF7323F00103B3F1062FE1D056484B
:104CA0008142DED053498B42DBD004F0FE43B3F1A6
:104CB000A06F14D102F0FE43B3F1A06F40F09380D7
:104CC00082EA040333F47E1340F08D8014F4004034
:104CD000D6D0C4F30540C2F305429042CDE7B3F10C
:104CE000407F6AD102F0FE43B3F1407F7BD182EA7C
:104CF000040535F47E1576D131462046FFF770FF66
:104D0000002870D13F4B12F47C1703EA02031BD03A
:104D1000B3F1607FC2F305473FD13B49D3B243F0C3
:104D200000738B423DD003F17E43043B112B01D82D
:104D30003649CD5C14F47C1FC4F3054333D1BD4226
:104D400014BF002001209BE7B3F1607F0DD12E49F5
:104D5000D3B243F000738B421DD003F17E43043B7A
:104D6000112BDAD82A49CF5CD7E7B3F1707FE1D1B4
:104D700006F4E043B3F5005F03D10127C6F3022335
:104D80009F4006F4E043B3F5005FD3D10125C6F39D
:104D900002218D40CEE71027BFE7B3F1707FC9D164
:104DA000EFE71025C6E712F47C1F01D1AB4218D003
:104DB00022047FF565AFBB425FE7B3F1106F12D1FC
:104DC00024F01F6020F4702068B902F0FE43B3F1B4
:104DD000106F7FF455AF0F48104040F01060A042B4
:104DE000AEE701204CE700204AE700BF00020006C2
:104DF0000013000600040006000900060003000678
:104E0000FF0000020000C07F0300000226BC00007B
:104E100026BC00000000FFF621F4FF7210B521F05F
:104E2000FF031A4C22F00102F8B121F4BF6020F018
:104E30000700A04212D0164883420FD0A0F5206090
:104E400083420BD0134B9A4208D003F580639942FA
:104E500008BF002018BF6FF0860005E0C9B2002926
:104E600014BF00206FF0860010BDA242FCD0084A9B
:104E70009342F9D021F47F7121F00301A2F5706211
:104E80009142F1D002F5A0629342E3E700020006EE
:104E900000130006000400062DE9F8438846174673
:104EA0001C4600F0A1FA054688BBD8F80060B6F8A9
:104EB000009009F4E043B3F5804FB36808BF27F0D2
:104EC000010737EA03031AD10CB3254B24F0FF0284
:104ED0009A421FD114F0FF0304D0224A43F000731A
:104EE000934232D022464846F168FFF799FE0746C2
:104EF00068B9224648463169FFF792FE70BB6FF0F1
:104F0000840500233046C8F8003003F014FA284620
:104F1000BDE8F883144B9A42DCD0A3F588539A423B
:104F2000D8D024F4FF7323F00103B3F1062FD1D0BE
:104F30000E498A42CED00E4A9342CBD004F0FE43B3
:104F4000B3F1407F04D12304CCD56FF08605D8E7B8
:104F5000B3F1A06FF7D0034B9C42C2E73D46D6E7C2
:104F600000030006FF00000200130006000900060F
:104F70000004000613B50446F0B101A900F034FAAC
:104F80000446C8B90198037F022B18D10323037785
:104F90000379FF2B16D043690C4A03F14043A3F574
:104FA0008053934202D800F0DDFB0446019803F0E1
:104FB000ADF9002818BF0446204602B010BD6FF0BE
:104FC0009604F3E76FF08404F0E700BFFFDFFF3FD4
:104FD0002DE9F04116469846002288B00388054620
:104FE0000F46CDE904220796C8F80020002E62D0B3
:104FF000B6F1005F80F0A68023F0FF03B3F5E24F27
:1050000002D0B3F5824F21D1284602F0C6FF0446F4
:10501000002840F09080EB686BB16B885BB128880A
:1050200000F44F42B2F5824F05D1C0B2222837D0EA
:105030002ED8122839D03A460023F11912F8010B64
:10504000914243EA0003F9D1002B34D0284605AA47
:1050500004A902F0FEFF0446A0B9049B9B6A6BB34F
:10506000049B39465A882846069206AA029203F102
:10507000280201929A6A00925B6A324600F0EEFAC8
:10508000044680B30498002855D003F08DF852E010
:105090002738C0B21B28CED82C4AC240D207CAD566
:1050A0000733B6EBD30FC6D205E040F20922934294
:1050B000F6D1402EBFD86FF086043CE06B681B0A27
:1050C00007D10799049803F02FF804460028C7D0A9
:1050D000D8E732463946284607AB00F08FFA044637
:1050E0000028EED0CEE70499069B4A88E2B94B80AF
:1050F0004FF6F8720699049B914220D82A8812B183
:105100001988914212D16A8812B1598891420DD101
:105110005A69C8F800201A7F012A0AD000236FF0CC
:105120009604C8F80030ADE79A42E1D06FF08604EB
:10513000A8E702221A77204608B0BDE8F0816FF098
:1051400085049FE76FF08504F5E700BF0102000CBE
:105150002DE9F04117461C461E4A23F4FF7323F045
:105160000103934205460E4696B00ED01A4B24F02A
:10517000FF029A4209D0194924F47F7323F00303F4
:105180008B4202D0164B9A4220D1DDE91C1205ABAE
:105190000193402314F0FF000DF1180818BF40F0F0
:1051A00000700093434600F0BDFA60B91F9B3A4679
:1051B00003931E9B31460293059B2846CDE900834D
:1051C000234600F0F9F916B0BDE8F0816FF08500D4
:1051D000F9E700BF00020006001300060004000605
:1051E0000009000610B5124C2378590744BF23F07C
:1051F0000403237023789A0705D500F099F82378E3
:1052000023F002032370637813B10A4803F0C3F854
:105210000023042107486370FFF7D6FC2378DB07DF
:1052200005D503F095F8237823F00103237010BD12
:10523000901700209417002038B51C4D6A782B7801
:10524000022A01D1072B12D0D80713D52B78990742
:1052500007D400F065F82B78044643F002032B7066
:1052600088B96A782B788AB12B785A0719D5002427
:10527000204638BD03F06AF82B78044643F001035A
:105280002B700028E2D0FFF7ADFFF1E7DB07EBD58D
:10529000074803F07EF8022304466B700028F2D121
:1052A000E2E743F004032B70E1E700BF9017002012
:1052B0009417002000F140431F2B70B505460E46A1
:1052C0000CD82C22154C02FB0344237F022B02D165
:1052D0006369834218D06FF08B001AE0012103F05C
:1052E00004F8B8B10D4B00221C46197F022902D1E7
:1052F0005969A94205D00132202A03F12C03F4D1C7
:10530000E9E72C2303FB0244204602F0E1FF00B949
:10531000346070BD6FF08700FBE700BF9817002076
:105320000122024B002083F8802570479817002047
:105330002DE9F0410A4C002526464FF001080327CD
:105340002046C4F820802777013502F02DFF202D5C
:1053500004F12C04F4D1002386F88035BDE8F081F7
:1053600098170020F8B51E4D064695F880350F4673
:105370007BB300242B462246197FD1B13CB90229C8
:1053800005D1196A19B91979002918BF1C460132CB
:10539000202A03F12C03EFD114B96FF08C0006E042
:1053A000204602F095FF204602F0FEFE10B10024D8
:1053B0000DE01C46237F7BB90123237736B1094BCF
:1053C000651BAD105D4305F18045356000203C60F4
:1053D000F8BD6FF08800EAE76FF09600E7E700BFDE
:1053E00098170020A38B2EBAF0B50027544B0F60FE
:1053F00093F8803505460E4691B0002B00F09C8056
:10540000FFF758FF10F18C0F044640F08E803146B4
:105410003846FFF7A7FF0446002840F086800122A7
:10542000336801465D61336809A85A601C223568FB
:1054300002F0D1F9002200236869CDE90623414A30
:1054400000F14043A3F580539342CDE90444039413
:1054500005D9284602F0A8FE6FF0870420E006AACE
:1054600003A9FBF775F90446002837D1039B6A6945
:105470000A93DBB2002B08BF00220346CDE90000EF
:10548000DDE906010E9209AA00F030F910F18A0F49
:10549000044608D030680CBB02F086FE6FF096041C
:1054A0000023336041E004A909A800F0BFF80446D6
:1054B000A0B92846049902F037FE044670B9DDE928
:1054C000060105AB0193AB6A09AA00936B6A00F071
:1054D0000DF9044648B1284602F05BFE306802F040
:1054E00063FE14F18C0FDBD1B6E72C46059BAB6253
:1054F00009AD0FCD0FC495E8070084E807003368B5
:105500009A68D00414D49A68910444BF42F40062AB
:105510009A6033681A7F012A04BF02221A77306822
:1055200002F0D6FE04460028BAD1204611B0F0BDE4
:1055300042F480629A60E6E76FF08804F5E700BF06
:1055400098170020FFDFFF3F2DE9F04F0D4616466C
:105550001749426885B0B1EB122F1F46DDE90E896D
:10556000DDE910AB04464FEA122303D0114A9342FF
:1055700000D063B93B46324629462046CDE902AB0E
:10558000CDE9008902F0DCFF10F1860F0CD13B461B
:10559000324629462046CDE910ABCDE90E8905B04B
:1055A000BDE8F04FFFF7D4BD05B0BDE8F08F00BFF8
:1055B000004E80004B4E80002DE9F041DFF8348032
:1055C0004568DDE90667B8EB152F4FEA1524DDE9DC
:1055D00008CE03D0084DAC4200D03CB9CDE908CE8E
:1055E000CDE90667BDE8F04102F0C6BF6FF0860066
:1055F000BDE8F081004E80004B4E8000194610B48B
:10560000002443680C60074C1A0AB4EB132F02D035
:10561000054B9A4202D110BC00F01ABA6FF0860016
:1056200010BC7047004E80004B4E800010B4002428
:1056300043680C60074C1A0AB4EB132F02D0064BD8
:105640009A4202D110BC00F003BA6FF0860010BC81
:10565000704700BF004E80004B4E80002DE9F04F98
:10566000DFF880B0D0F804E085B0BBEB1E2F044615
:10567000DDE90E890D4616461F46DDF840A04FEACB
:105680001E2C1CD0DFF860E0F44518D0BCF1000FF0
:1056900022D1CDE9019ACDF8008000F035FC10F15F
:1056A000860F1BD13B46324629462046CDE90F9A4C
:1056B000CDF8388005B0BDE8F04F02F048BD3B465C
:1056C000324629462046CDE90F9ACDF8388005B0FC
:1056D000BDE8F04F00F018BC6FF0860005B0BDE8E3
:1056E000F08F00BF004E80004B4E8000F0B4DFF81A
:1056F0002CC05468DDE90456BCEB142F4FEA142784
:1057000002D0074CA74204D1CDE90456F0BC00F00A
:10571000C1BC6FF08B00F0BC704700BF004E800032
:105720004B4E800010B4054CA04202D010BC02F0D9
:1057300059BF6FF0850010BC704700BF0500000224
:10574000074B10B59942044606D0043002F087FF9B
:1057500008B90523236010BD6FF08500FBE700BF8B
:10576000050000024268044BB3EB122F01D103F095
:1057700032B86FF0850070474B4E800010B50C4C6E
:10578000207803F03EFD0B4A1368591C11604BB999
:10579000094A4820D2F8003443F00703C2F8003425
:1057A000FCF782FD2078BDE8104003F02CBD00BF5F
:1057B0009C2600201C1D00200080045038B5164D8A
:1057C000287803F01EFD154B1C68013C1C60ECB9E9
:1057D0004820FCF777FD0722114BC3F80823D3F8C4
:1057E000002422F00702C3F80024C3F80041D3F8D4
:1057F0000021C3F80441D3F804214FF48072C3F8A8
:105800000841D3F80831074BC3F888212878BDE850
:10581000384003F0F8BC00BF9C2600201C1D00206F
:105820000080045000E100E070B5114D114E2B686E
:10583000B34212D0FFF7A2FF01F054F80E4A0F4B0B
:105840000F4952F8040B43F8040B8B42F9D101F0D5
:105850000DF920B9FFF7B2FF2E60002406E002F038
:105860009CFD0446FFF7AAFF002CF5D0204670BD32
:10587000A401002011736500889E000000C08051C3
:105880001CD380511FB5114CD4F84034012B14D0D7
:10589000B72000F07BF918B16FF0210004B010BD03
:1058A000B82000F073F90028F6D1B92000F06EF9A5
:1058B0000028F1D10123C4F84034102200216846A9
:1058C00001F089FF684603F06AFAE7E700800450B8
:1058D00000230B6010F0FF0310B519D043F00073E4
:1058E00003F17E43053B0E2B12D8012247F6290413
:1058F0009A40224205D1062B08D0042B08D1094B2F
:105900000B600B6863B96FF0850008E0064BF7E7A2
:1059100000F0FE40B0F1007FF5D06FF0860010BDC2
:105920000020FCE75CB300003CB30000302817D037
:105930000ED81238C0B2192807D80123214A834053
:105940001A40002A3AD1DB0720D46FF08600704756
:1059500041282AD04228F8D1FF2928D11A4B2AE021
:10596000B1F5A07F2AD00BD821F02003C02B25D081
:10597000B1F5807F0CBF6FF085006FF08600704737
:10598000B1F5C07F1AD0B1F5007FF3E7B1F5807FA4
:1059900014D003D821F02001C029EBE7B1F5C07F76
:1059A0000CD040F209239942E4E7FF2902D0B1F577
:1059B000E07FDFE7054B0020136070476FF0850044
:1059C000704700BF20022102C8B30000BCB3000032
:1059D0002DE9F0411D4B94B0D0F8048006460F46E7
:1059E00001A8196801F060F8DDE90154DCB922462C
:1059F0003146284603AB03F0D3FA044698B928464B
:105A000003F08CFADDE903120346384603F06CF824
:105A1000284603F061F9284603F029F90446284690
:105A200001F06CF82CB1204614B0BDE8F04102F052
:105A3000B4BC414603A802F06DFD03A8414602F044
:105A400069FD204614B0BDE8F08100BF04B4000039
:105A500010B51E4C4368B4EB132F4FEA132215D137
:105A600042691B4B9A420CD003F5FF437D3313442C
:105A7000012B03D80388B3F5105F24D06FF08600A4
:105A800019E047F2121302889A42F6E7114B9A4244
:105A9000F4D1028802F44F43B3F5824F0CD143880E
:105AA00044F21210073382424FEAD30301D15B0064
:105AB000013300200B6010BDB2F5885F03D143882D
:105AC0000733DB08F5E70223F3E700BF004E800051
:105AD00001C0FF7F4B4E80000022074BC3F810210E
:105AE000C3F80C21C3F80021C3F80421C3F808212E
:105AF000C3F81421704700BF0050045008B5FFF7E9
:105B0000EBFF01230360104B0A6832B9D3F80C2174
:105B10001AB9D3F80821002AF6D00B687BB90B4BD1
:105B200099420ED0A3F58473D3F80831002B0CBF33
:105B30004FF0FF306FF00200FFF7CEFF08BD0020EE
:105B4000FAE74FF0FF30F7E70050045008510450D7
:105B500038B505460C4691B10021012002F0ABF9A1
:105B600008480949C0F80055C0F80445FFF7C6FFCA
:105B700000210446084602F09EF9204638BD6FF029
:105B80000104FAE70050045000510450034B04494B
:105B9000C3F800050348FFF7B1BF00BF0050045031
:105BA000045104500450045010B504460021012053
:105BB00002F081F9064B0749C3F800450648FFF794
:105BC0009DFF00210446084602F075F9204610BDED
:105BD00000500450085104500850045038B50C4689
:105BE00059B1074D0749C5F800050748FFF786FF7B
:105BF00010B9D5F80835236038BD6FF00100FBE718
:105C000000500450105104500C5004502DE9F04342
:105C100083B099460B88904623F0FF0200AFB2F59F
:105C2000824F0D46BE6A08D0B2F5E24F05D06FF044
:105C300085000C37BD46BDE8F08326F4FF7222F0E4
:105C40000102B2F1062F0BD0594A964208D002F257
:105C50000B12964204D026F0FF010B3A9142E6D196
:105C6000AA68D8B912F4005F00F09B8044F20101E9
:105C700023F44050884203F44F4212D16C88E40868
:105C800010340021073424F00704ADEB040DB2F505
:105C9000824F79606C4669881CD13BE012F4006F3A
:105CA000E2E7B2F5844F04D16C880734E408E8D108
:105CB000BDE7B2F5884F0FD16A466988CB1DDB0876
:105CC00003EB43030833DB08A2EBC3039D46002329
:105CD0006C467B6000231DE0B2F58E4FE4D0B2F538
:105CE000824FA4D1D8B24228698804D101F10802B8
:105CF000D208073206E0CA1D41284FEAD2021FD05F
:105D0000520008326846D208A0EBC2029546002233
:105D10006C467A603A1DD8B2FFF708FE68B96A6827
:105D2000244BB3EB122F0ED1B9F1020F33D1214620
:105D300098F8000000F09CFFB8B102F02EFB78E765
:105D4000002AD6D173E71A4B9E4203D003F20B13FD
:105D50009E4223D12B8823F0FF03B3F5824F15D148
:105D60004A464146204601F02BFD7B685A68BB6BD2
:105D7000B3EB420F18D10E4B9E427FF458AFD7E9D8
:105D80000C232046F96A02F013FCD6E72146404670
:105D900000F040F8D0E76FF08600CEE76FF0020029
:105DA000CBE76FF0860044E76FF0940041E700BF57
:105DB00000080006004E8000F0B51E46134B9BB055
:105DC000CDE90401CDE90236222120239DF880404F
:105DD000CDE9061384F0010405460AAF06A902A81E
:105DE000CDE9083200970A4BC4F1040201EB8401AB
:105DF00000EB840002F057FB30B9334629463846A1
:105E000006F1200202F0B7FE1BB0F0BDB001002089
:105E10003CB3000030B591B00D466B462021114ACD
:105E200002F04EFB0446C8B9684603F048F9202347
:105E3000224619460DEB030002F061FB684608A9F3
:105E400002F085FE044648B9202228460DEB0201E7
:105E500001F0B6FC4021684602F05CFB204611B020
:105E600030BD00BF3CB300002DE9F0410388C76896
:105E700003F44F44B4F5824F08BF1D4603F4E044D9
:105E80001F4B18BF002500209E46EDB21E78AE4283
:105E900024D1D3E9026CD2F80080B4F5804F08BF5A
:105EA0006646B8F1000F0CD18E420AD1142303FBD1
:105EB00000E3596811601B7CB3B96FF08500BDE841
:105EC000F081D3F804C0E04508D18E4202D06FF0D3
:105ED0008600F4E7142303FB00E3ECE7013013280A
